S010000050726F6A656374322E737265630B
S11300000C947C000C9499000C9499000C94990025
S11300100C9499000C9499000C9499000C949900F8
S11300200C9499000C9499000C9440040C9499003D
S11300300C9499000C942F040C9499000C9499003E
S11300400C94F4030C9499000C9499000C9499006A
S11300500C94D4030C94FA040C9499000C94990015
S11300600C9499000C94990080018E01A101B401B3
S1130070C701DA01ED010002130226025A035A03F2
S11300805A035A035A035A035A03B0025A039002FA
S11300905A03A0025A035A0373025A035A035A0317
S11300A05602F10201035A0331035A035A03460369
S11300B039022103C80211035A035A035A035A038B
S11300C05A035A035A035A035A03B0025A039002BA
S11300D05A03A0025A035A0373025A035A035A03D7
S11300E05602F10201035A0331035A035A03460329
S11300F039022103C802110311241FBECFEFD8E037
S1130100DEBFCDBF13E0A0E0B1E0E0E5F0E102C066
S113011005900D92A03EB107D9F724E0A0EEB3E01C
S113012001C01D92AD33B207E1F70E942B010C947C
S113013026080C9400008DE390E090933C04809397
S11301403B0481E090E0909337048093360410924E
S113015019041092180485E085BD14BC80913B04F9
S113016090913C0486BD81E080936E0008951092C6
S1130170800082E88093810081E280936F00109276
S11301802704109226041092E2031092E3031092C3
S1130190E4031092E50310922804109229041092AB
S11301A02A0410922B0484E090E0A0E0B0E0809355
S11301B0320490933304A0933404B0933504109222
S11301C0250410922404089585E08093B10081E20F
S11301D08093B0001092700008951092230410923E
S11301E0220480E480937C008FEE80937A0084E084
S11301F080937B0008951092C00088E58093C1002D
S113020087E690E09093C5008093C400089521E0B0
S11302102093E003E6EEF3E02DE0208322E0209338
S1130220E1032AE02183FC012081222379F0DC010F
S1130230E091E10381E08E0F8093E1038D91F0E082
S1130240EA51FC4F80838C918111F2CF8091E603B7
S11302508093C6000895CF93DF93CDB7DEB7EC97B4
S11302600FB6F894DEBF0FBECDBF88ED8AB90E94E9
S1130270FB000E949B000E94B7000E94E4000E94C1
S1130280ED00789400EC10E00F2EF6ECCF2ED12C7C
S1130290F02DCE0101967C010F2EF4EBAF2EB12C84
S11302A0F02D0F2EFCEA2F2EF3E03F2EF02D4424E8
S11302B04394512C0F2EF8E88F2EF3E19F2EF02D4E
S11302C00F2EFCEF6F2EF2E07F2EF02DD8018C91D3
S11302D088230CF0FAC1809124049091250401979D
S11302E009F0F3C1D601EC918E2F90E0FC01F09758
S11302F0E834F10508F0DEC1EC5CFF4F0C943605E0
S113030085E1E0E0F1E0D70101900D928A95E1F7F3
S1130310C7010E940701F5011082D7C185E191E070
S11303209F938F93FF92EF920E943C05C7010E9416
S113033007018AE1D5018C930F900F900F900F90D5
S1130340C4C186E391E09F938F93FF92EF920E9442
S11303503C05C7010E94070182E3F50180830F90E9
S11303600F900F900F90B1C187E591E09F938F9309
S1130370FF92EF920E943C05C7010E9407018DE4A1
S1130380D5018C930F900F900F900F909EC188E72A
S113039091E09F938F93FF92EF920E943C05C701D7
S11303A00E94070186E6F50180830F900F900F905D
S11303B00F908BC189E991E09F938F93FF92EF9205
S11303C00E943C05C7010E94070180E8D5018C9377
S11303D00F900F900F900F9078C18AEB91E09F934C
S11303E08F93FF92EF920E943C05C7010E94070180
S11303F08AE9F50180830F900F900F900F9065C1EB
S11304008BED91E09F938F93FF92EF920E943C05B6
S1130410C7010E94070183EBD5018C930F900F90C5
S11304200F900F9052C18CEF91E09F938F93FF92A6
S1130430EF920E943C05C7010E9407018DECF50173
S113044080830F900F900F900F903FC18DE192E049
S11304509F938F93FF92EF920E943C05C7010E94E5
S1130460070186EED5018C930F900F900F900F909B
S11304702CC180912C0490912D04A0912E04B09154
S11304802F04BF93AF939F938F938EE392E09F9338
S11304908F93FF92EF920E943C05C7010E940701CF
S11304A00FB6F894DEBF0FBECDBF0FC180913504E7
S11304B08F93809134048F93809133048F93809130
S11304C032048F938AE592E09F938F93FF92EF9289
S11304D00E943C05C7010E9407010FB6F894DEBFD5
S11304E00FBECDBFF2C080912B048F9380912A045C
S11304F08F93809129048F93809128048F9389E7A7
S113050092E09F938F93FF92EF920E943C05C70164
S11305100E9407010FB6F894DEBF0FBECDBFD5C051
S11305208BE2E9E9F2E0D70101900D928A95E1F7B7
S1130530C7010E94070150921D0440921C04C5C0CB
S11305408AE2E4ECF2E0D70101900D928A95E1F79A
S1130550C7010E94070110921D0410921C04B5C02B
S113056080911A0490911B049F938F938EEE92E0D6
S11305709F938F93FF92EF920E943C05C7010E94C4
S113058007010F900F900F900F900F900F909DC048
S113059020911A0430911B04289DC001299D900DBF
S11305A0389D900D11246FEF73E00E942205709323
S11305B021046093200480912004909121049F934E
S11305C08F937F926F92FF92EF920E943C05C70136
S11305D00E9407010F900F900F900F900F900F90B3
S11305E074C08EE2EDE0F3E0D70101900D928A959C
S11305F0E1F7C7010E940701509231044092300490
S113060064C088E2EBE3F3E0D70101900D928A9590
S1130610E1F7C7010E9407011092310410923004DF
S113062054C08EE1E3E6F3E0D70101900D928A9580
S1130630E1F75092190440921804C7010E9407017F
S113064044C088E1E1E8F3E0D70101900D928A9576
S1130650E1F71092190410921804C7010E940701CF
S113066034C089B11F928F93E9E9F3E0FF93EF93CC
S1130670FF92EF920E943C05C7010E9407010F9070
S11306800F900F900F900F900F901FC0D5018C9179
S11306901F928F933F922F92FF92EF920E943C05FC
S11306A0C7010E9407010F900F900F900F900F90B9
S11306B00F900BC086E1EDEBF3E0D70101900D92B2
S11306C08A95E1F7C7010E94070180911C0490916B
S11306D01D04019741F59091E1038091E003981383
S11306E0F5CD209128043091290480913204909111
S11306F03304820F931F9F938F9383ED93E09F9313
S11307008F93FF92EF920E943C05C7010E9407015C
S113071010922504109224040F900F900F900F90C4
S11307200F900F90D3CD80912204909123040197D0
S113073009F0CCCD8091300490913104019709F0F7
S1130740C5CD9091E1038091E0039813BFCD209132
S11307501A0430911B04289DC001299D900D389DD9
S1130760900D11246FEF73E00E9422057093210411
S11307706093200480912004909121049F938F938F
S11307807F926F92FF92EF920E943C05C7010E94F4
S1130790070110922304109222040F900F900F90DF
S11307A00F900F900F9092CD1F920F920FB60F9251
S11307B011248F93EF93FF93E091E0038091E10381
S11307C08E1751F081E08E0F8093E003F0E0EA5140
S11307D0FC4F80818093C600FF91EF918F910F9021
S11307E00FBE0F901F9018951F920F920FB60F9285
S11307F011242F933F938F939F9380913B04909167
S11308003C0486BD80911E0490911F040196909330
S11308101F0480931E048091180490911904019779
S1130820A1F420911E0430911F048091360490910C
S113083037042817390750F09BB180E189278BB919
S113084010921F0410921E0401C05C989F918F9116
S11308503F912F910F900FBE0F901F9018951F92EC
S11308600F920FB60F9211248F9380913A048F5FE9
S113087080933A048F910F900FBE0F901F9018959C
S11308801F920F920FB60F9211242F933F934F9301
S11308905F936F937F938F939F93AF93BF93EF93E4
S11308A0FF93209186003091870030933904209380
S11308B0380481E090E0909325048093240480918F
S11308C03A0490E0A0E0B0E0DC0199278827409149
S11308D0260450912704841B950BA109B109820FAA
S11308E0931FA11DB11D80932C0490932D04A093FC
S11308F02E04B0932F0480912C0490912D04A09188
S11309002E04B0912F04B695A7959795879580935B
S1130910E2039093E303A093E403B093E50380918F
S1130920810086FF15C080912C0490912D04A09124
S11309302E04B0912F04B695A7959795879580932B
S1130940320490933304A0933404B093350414C058
S113095080912C0490912D04A0912E04B0912F0429
S1130960B695A79597958795809328049093290425
S1130970A0932A04B0932B04E1E8F0E0908180E492
S113098089278083809138049091390490932704B7
S11309908093260410923A0440912804509129042B
S11309A060912A0470912B04809132049091330455
S11309B0A0913404B0913504840F951FA61FB71F6E
S11309C085369105A105B10510F05E9A02C08BB180
S11309D08BB9FF91EF91BF91AF919F918F917F91CF
S11309E06F915F914F913F912F910F900FBE0F9098
S11309F01F9018951F920F920FB60F9211242F93E8
S1130A008F939F93809178009091790090931B0429
S1130A1080931A0481E090E090932304809322044D
S1130A2080911A0490911B048333934010F05F9AD1
S1130A3001C05F989F918F912F910F900FBE0F90DF
S1130A401F901895AA1BBB1B51E107C0AA1FBB1F0F
S1130A50A617B70710F0A61BB70B881F991F5A9546
S1130A60A9F780959095BC01CD010895EE0FFF1F65
S1130A700590F491E02D0994AEE0B0E0E2E4F5E0F5
S1130A800C94FD070D891E8986E08C831A830983E3
S1130A908FEF9FE79E838D83AE01475E5F4F6F8923
S1130AA0788DCE0101960E945E05EF81F885E00FF6
S1130AB0F11F10822E96E4E00C941908ABE0B0E02C
S1130AC0E4E6F5E00C94EF076C017B018A01FC017C
S1130AD017821682838181FFCCC1CE0101963C012D
S1130AE0F6019381F70193FD859193FF81917F0135
S1130AF0882309F4BAC1853239F493FD859193FFB3
S1130B0081917F01853229F4B60190E00E94550756
S1130B10E7CF912C212C312CFFE1F315D8F08B3247
S1130B2079F038F4803279F08332A1F4232D2061F6
S1130B301DC08D3261F0803369F4232D216016C00D
S1130B40832D8260382EE32DE4603E2E2AC0F32DDF
S1130B50F8601DC037FC2DC020ED280F2A3040F06E
S1130B608E32B9F436FC81C1232D2064322E19C093
S1130B7036FE06C08AE0989E200D1124922E11C0E4
S1130B80EAE02E9E200D1124222EF32DF0623F2E3A
S1130B9008C08C3621F4832D8068382E02C0883634
S1130BA041F4F70193FD859193FF81917F018111B8
S1130BB0B3CF982F9F7D9554933028F40C5F1F4F2B
S1130BC09FE399830DC0833631F0833771F0833509
S1130BD009F059C021C0F801808189830E5F1F4F3D
S1130BE088248394912C530113C02801F2E04F0E02
S1130BF0511CF801A080B18036FE03C0692D70E05D
S1130C0002C06FEF7FEFC5010E944A074C018201C9
S1130C10F32DFF773F2E16C0280122E0420E511C0F
S1130C20F801A080B18036FE03C0692D70E002C0D7
S1130C306FEF7FEFC5010E943F074C01F32DF06871
S1130C403F2E820133FC1BC0822D90E0881699064A
S1130C50B0F4B60180E290E00E9455072A94F4CFE4
S1130C60F50137FC859137FE81915F01B60190E073
S1130C700E94550721102A9421E0821A91088114B8
S1130C80910471F7E8C0843611F0893641F5F80112
S1130C9037FE07C060817181828193810C5F1F4F91
S1130CA008C060817181072E000C880B990B0E5FC0
S1130CB01F4FF32DFF763F2E97FF09C09095809527
S1130CC0709561957F4F8F4F9F4FF0683F2E2AE0BC
S1130CD030E0A3010E949107882E861845C085370D
S1130CE031F4232D2F7EB22E2AE030E025C0932D3F
S1130CF0997FB92E8F36C1F018F4883579F0B5C0D4
S1130D00803719F0883721F0B0C0E92FE061BE2E9A
S1130D10B4FE0DC0FB2DF460BF2E09C034FE0AC022
S1130D20292F2660B22E06C028E030E005C020E15D
S1130D3030E002C020E132E0F801B7FE07C0608174
S1130D407181828193810C5F1F4F06C06081718124
S1130D5080E090E00E5F1F4FA3010E949107882E50
S1130D608618FB2DFF773F2E36FE0DC0232D2E7FD8
S1130D70A22E891458F434FE0BC032FC09C0832D12
S1130D808E7EA82E05C0B82CA32C03C0B82C01C09D
S1130D90B92CA4FE0FC0FE01E80DF11D8081803343
S1130DA021F49A2D997EA92E09C0A2FE06C0B394FF
S1130DB0B39404C08A2D867809F0B394A3FC11C0BF
S1130DC0A0FE06C0B21488F4280C922C9B180EC006
S1130DD0B21460F4B60180E290E00E945507B39427
S1130DE0F7CFB21418F42B1802C0982C212CA4FEAF
S1130DF010C0B60180E390E00E945507A2FE17C020
S1130E00A1FC03C088E790E002C088E590E0B60149
S1130E100CC08A2D867859F0A1FE02C08BE201C075
S1130E2080E2A7FC8DE2B60190E00E945507891488
S1130E3038F4B60180E390E00E9455079A94F7CF06
S1130E408A94F301E80DF11D8081B60190E00E94BF
S1130E5055078110F5CF222009F442CEB60180E275
S1130E6090E00E9455072A94F6CFF6018681978177
S1130E7002C08FEF9FEF2B96E2E10C940B08FC016C
S1130E800590615070400110D8F7809590958E0FB1
S1130E909F1F0895FC016150704001900110D8F724
S1130EA0809590958E0F9F1F08950F931F93CF9356
S1130EB0DF93FB01238121FD03C08FEF9FEF2CC043
S1130EC022FF16C04681578124813581421753077A
S1130ED044F4A081B1819D012F5F3F4F3183208372
S1130EE08C93268137812F5F3F4F3783268314C02D
S1130EF08B01EC01FB010084F185E02D0995892B20
S1130F00E1F6D80116968D919C9117970196179644
S1130F109C938E931697CE01DF91CF911F910F91E1
S1130F200895FA01AA27283051F1203181F1E8947B
S1130F306F936E7F6E5F7F4F8F4F9F4FAF4FB1E0C8
S1130F403ED0B4E03CD0670F781F891F9A1FA11DC3
S1130F50680F791F8A1F911DA11D6A0F711D811DC4
S1130F60911DA11D20D009F468943F912AE0269F89
S1130F7011243019305D3193DEF6CF010895462FE8
S1130F804770405D4193B3E00FD0C9F7F6CF462FC9
S1130F904F70405D4A3318F0495D31FD4052419332
S1130FA002D0A9F7EACFB4E0A695979587957795EF
S1130FB06795BA95C9F700976105710508959B0176
S1130FC0AC010A2E06945795479537952795BA95FF
S1130FD0C9F7620F731F841F951FA01D08952F92D8
S1130FE03F924F925F926F927F928F929F92AF92B5
S1130FF0BF92CF92DF92EF92FF920F931F93CF9302
S1131000DF93CDB7DEB7CA1BDB0B0FB6F894DEBF98
S11310100FBECDBF09942A88398848885F846E84BE
S11310207D848C849B84AA84B984C884DF80EE8008
S1131030FD800C811B81AA81B981CE0FD11D0FB611
S1131040F894DEBF0FBECDBFED010895F894FFCF35
S11310504C45442062697420332073657420746F96
S1131060204F4646004C4544206269742033207367
S1131070657420746F203130252520627269676899
S1131080746E657373004C45442062697420332088
S113109073657420746F203230252520627269676D
S11310A068746E657373004C454420626974203320
S11310B02073657420746F20333025252062726993
S11310C06768746E657373004C45442062697420CC
S11310D0332073657420746F2034302525206272A8
S11310E0696768746E657373004C45442062697463
S11310F020332073657420746F20353025252062D9
S113110072696768746E657373004C454420626944
S11311107420332073657420746F203630252520A5
S11311206272696768746E657373004C454420622B
S1131130697420332073657420746F20373025253B
S1131140206272696768746E657373004C4544204D
S113115062697420332073657420746F20383025DD
S113116025206272696768746E657373004C454428
S11311702062697420332073657420746F203930C1
S11311802525206272696768746E65737300506503
S113119072696F64206F66203535352074696D651A
S11311A0723A20256C75207573004C6F772070752A
S11311B06C7365206F66203535352074696D6572F2
S11311C03A20256C7520757300486967682070752E
S11311D06C7365206F66203535352074696D6572D2
S11311E03A20256C7520757300436F6E74696E75B3
S11311F06F75736C79207265706F7274696E672095
S113120074696D657220696E707574207065726999
S11312106F642E00436F6E74696E756F75732074FE
S1131220696D657220696E707574207265706F7275
S113123074696E672073746F707065642E00414426
S1131240432056616C75653A20257500414443205E
S113125056616C75653A202575206D5600436F6E96
S113126074696E756F75736C79207265706F7274C2
S1131270696E67204144433020636F6E76657273F4
S1131280696F6E20726573756C740053746F70208F
S1131290636F6E74696E756F7573207265706F72AB
S11312A074696E67206F66204144433020696E7014
S11312B0757400546F67676C6520746865204C45CD
S11312C044206269742034206174203132356D7396
S11312D00053746F7020746F67676C696E67204C7D
S11312E0454420626974203400504F5254442053C2
S11312F074617475733A2030782558004F43523224
S113130042205374617475733A20256400496E70E9
S11313107574206E6F74207265636F676E697A6589
S1131320642E0056616C75653A202575207573002E
S9030000FC
