:100000000C946B000C9488000C9488000C9488006D
:100010000C9488000C9488000C9488000C94880040
:100020000C9488000C9488000C9477030C9488003E
:100030000C9488000C9466030C9488000C9488003F
:100040000C942B030C9488000C9488000C9488006A
:100050000C940B030C9431040C9488000C948800CD
:100060000C9488000C948800EE01A502C101A50241
:10007000DC01A502A502A301A502A502A502850136
:100080002F024102A5027702A502A5028D02670197
:10009000650205025302A502A502A502A502A5025A
:1000A000A502A502A502A502EE01A502C101A502B5
:1000B000DC01A502A502A301A502A502A5028501F6
:1000C0002F024102A5027702A502A5028D02670157
:1000D00065020502530211241FBECFEFD8E0DEBF38
:1000E000CDBF12E0A0E0B1E0E6E9FEE002C005907D
:1000F0000D92AC39B107D9F722E0ACE9B2E001C00A
:100100001D92A93FB207E1F70E940D010C94490727
:100110000C9400008DE390E09093F8028093F70236
:1001200081E090E09093F3028093F2021092D50266
:100130001092D40285E085BD14BC8091F7029091A5
:10014000F80286BD81E080936E00089510928000D1
:1001500082E88093810081E280936F001092E30235
:100160001092E20210929E0210929F021092A00240
:100170001092A1021092E4021092E5021092E6029F
:100180001092E7021092EE021092EF021092F0022B
:100190001092F1021092E1021092E0020895109282
:1001A000DF021092DE0280E480937C008FEE809369
:1001B0007A0084E080937B0008951092C00088E567
:1001C0008093C10087E690E09093C5008093C400BF
:1001D000089521E020939C02E2EAF2E02DE02083E2
:1001E00022E020939D022AE02183FC01208122232A
:1001F00079F0DC01E0919D0281E08E0F80939D02F9
:100200008D91F0E0EE55FD4F80838C918111F2CFFE
:100210008091A2028093C6000895CF93DF93CDB75B
:10022000DEB7EC970FB6F894DEBF0FBECDBF88EDFA
:100230008AB91BB80E94DD000E948A000E94A600B5
:100240000E94CF0078940F2EF0EC4F2E512CF02D01
:10025000CE0101967C010F2EF8E8AF2EF3E1BF2E00
:10026000F02D0F2EF3ECCF2EF1E0DF2EF02D9E2C93
:100270008F2C01E010E00F2EF5EB6F2EF1E07F2EBA
:10028000F02D0F2EF2E82F2EF1E03F2EF02DD201AF
:100290008C9188230CF066C18091E0029091E1027C
:1002A000019709F05FC11092E1021092E002A6EC02
:1002B000B0E0EC918E2F90E0FC01E154F109E733BE
:1002C000F10508F042C1EC5CFF4F0C945904809199
:1002D000E8029091E902A091EA02B091EB02BF938B
:1002E000AF939F938F9380E091E09F938F93FF92C2
:1002F000EF920E945F04892D982D0E94E9000FB6AD
:10030000F894DEBF0FBECDBF2DC18091F1028F9357
:100310008091F0028F938091EF028F938091EE0293
:100320008F9389E291E09F938F93FF92EF920E94C7
:100330005F04892D982D0E94E9000FB6F894DEBF66
:100340000FBECDBF0FC18091E7028F938091E6026F
:100350008F938091E5028F938091E4028F9385E5DE
:1003600091E09F938F93FF92EF920E945F04892DFB
:10037000982D0E94E9000FB6F894DEBF0FBECDBFE6
:10038000F1C01093D9020093D8028091D8029091C5
:10039000D9029F938F933F922F92FF92EF920E94E8
:1003A0005F04892D982D0E94E9000F900F900F9007
:1003B0000F900F900F90D6C08AE2EBE8F1E0A92DE4
:1003C000B82D01900D928A95E1F71092D902109202
:1003D000D802892D982D0E94E900C4C08091D602D0
:1003E0009091D7029F938F937F926F92FF92EF929B
:1003F0000E945F04892D982D0E94E9000F900F90B4
:100400000F900F900F900F90ADC02091D6023091B9
:10041000D7022A9DC0012B9D900D3A9D900D11246D
:10042000892F9927869586959093DD028093DC022B
:100430008091DC029091DD029F938F93DF92CF92A7
:10044000FF92EF920E945F04892D982D0E94E9008F
:100450000F900F900F900F900F900F9083C081E33B
:10046000E4EDF1E0A92DB82D01900D928A95E1F708
:10047000892D982D0E94E9001093ED020093EC0263
:1004800071C088E2E5E0F2E0A92DB82D01900D924F
:100490008A95E1F7892D982D0E94E9001092ED02CE
:1004A0001092EC025FC08EE1EDE2F2E0A92DB82DD2
:1004B00001900D928A95E1F71093D5020093D40232
:1004C000892D982D0E94E9004DC088E1EBE4F2E00F
:1004D000A92DB82D01900D928A95E1F71092D502C1
:1004E0001092D402892D982D0E94E9003BC089B159
:1004F0001F928F9383E692E09F938F93FF92EF92E8
:100500000E945F04892D982D0E94E9000F900F90A2
:100510000F900F900F900F9025C0E4EBF0E08081DA
:100520001F928F9384E792E09F938F93FF92EF92B5
:100530000E945F04892D982D0E94E9000F900F9072
:100540000F900F900F900F900DC086E1E5E8F2E05C
:10055000A92DB82D01900D928A95E1F7892D982D3E
:100560000E94E9008091D8029091D902019711F57B
:100570002091E4023091E5028091EE029091EF0229
:10058000820F931F9F938F9389EB91E09F938F939B
:10059000FF92EF920E945F04892D982D0E94E9003E
:1005A0001092E1021092E0020F900F900F900F90C6
:1005B0000F900F908091EC029091ED02019709F05D
:1005C00066CE2091D6023091D7022A9DC0012B9D84
:1005D000900D3A9D900D1124892F99278695869527
:1005E0009093DD028093DC028091DC029091DD0229
:1005F0009F938F93DF92CF92FF92EF920E945F04BE
:10060000892D982D0E94E9000F900F900F900F9068
:100610000F900F902ECE1F920F920FB60F921124B3
:100620008F93EF93FF93E0919C0280919D028E1730
:1006300051F081E08E0F80939C02F0E0EE55FD4F6B
:1006400080818093C600FF91EF918F910F900FBE34
:100650000F901F9018951F920F920FB60F921124B2
:100660002F933F938F939F938091F7029091F8027D
:1006700086BD8091DA029091DB0201969093DB02B5
:100680008093DA028091D4029091D5020197A1F46F
:100690002091DA023091DB028091F2029091F30214
:1006A0002817390750F09BB180E189278BB9109248
:1006B000DB021092DA0201C05C989F918F913F910A
:1006C0002F910F900FBE0F901F9018951F920F92B1
:1006D0000FB60F9211248F938091F6028F5F809353
:1006E000F6028F910F900FBE0F901F9018951F92DA
:1006F0000F920FB60F9211242F933F934F935F9356
:100700006F937F938F939F93AF93BF93EF93FF93D9
:1007100020918600309187003093F5022093F402F7
:1007200081E090E09093E1028093E0028091F602F4
:1007300090E0A0E0B0E0DC01992788274091E20238
:100740005091E302841B950BA109B109820F931FFD
:10075000A11DB11D8093E8029093E902A093EA02E3
:10076000B093EB028091E8029091E902A091EA0235
:10077000B091EB02B695A7959795879580939E02C9
:1007800090939F02A093A002B093A1028091810058
:1007900080FF15C08091E8029091E902A091EA02E1
:1007A000B091EB02B695A795979587958093EE0249
:1007B0009093EF02A093F002B093F10214C08091E5
:1007C000E8029091E902A091EA02B091EB02B6959D
:1007D000A795979587958093E4029093E502A0935F
:1007E000E602B093E702E1E8F0E0908180E4892737
:1007F00080838091F4029091F5029093E3028093BC
:10080000E2021092F6024091E4025091E5026091FA
:10081000E6027091E7028091EE029091EF02A091C2
:10082000F002B091F102840F951FA61FB71F853605
:100830009105A105B10510F05E9A02C08BB18BB98C
:10084000FF91EF91BF91AF919F918F917F916F91A8
:100850005F914F913F912F910F900FBE0F901F907E
:1008600018951F920F920FB60F9211242F938F930A
:100870009F9380917800909179009093D702809314
:10088000D60281E090E09093DF028093DE028091B7
:10089000D6029091D7028333934010F05F9A01C043
:1008A0005F989F918F912F910F900FBE0F901F9087
:1008B0001895EE0FFF1F0590F491E02D0994AEE01E
:1008C000B0E0E5E6F4E00C9420070D891E8986E08F
:1008D0008C831A8309838FEF9FE79E838D83AE01FC
:1008E000475E5F4F6F89788DCE0101960E9481042B
:1008F000EF81F885E00FF11F10822E96E4E00C9452
:100900003C07ABE0B0E0E7E8F4E00C9412076C01C0
:100910007B018A01FC0117821682838181FFCCC191
:10092000CE0101963C01F6019381F70193FD85917B
:1009300093FF81917F01882309F4BAC1853239F48C
:1009400093FD859193FF81917F01853229F4B60152
:1009500090E00E947806E7CF912C212C312CFFE10A
:10096000F315D8F08B3279F038F4803279F0833295
:10097000A1F4232D20611DC08D3261F0803369F414
:10098000232D216016C0832D8260382EE32DE46074
:100990003E2E2AC0F32DF8601DC037FC2DC020ED7F
:1009A000280F2A3040F08E32B9F436FC81C1232D55
:1009B0002064322E19C036FE06C08AE0989E200DB3
:1009C0001124922E11C0EAE02E9E200D1124222E19
:1009D000F32DF0623F2E08C08C3621F4832D806801
:1009E000382E02C0883641F4F70193FD859193FFBC
:1009F00081917F018111B3CF982F9F7D95549330C2
:100A000028F40C5F1F4F9FE399830DC0833631F0AC
:100A1000833771F0833509F059C021C0F801808116
:100A200089830E5F1F4F88248394912C530113C038
:100A30002801F2E04F0E511CF801A080B18036FE73
:100A400003C0692D70E002C06FEF7FEFC5010E9407
:100A50006D064C018201F32DFF773F2E16C0280151
:100A600022E0420E511CF801A080B18036FE03C086
:100A7000692D70E002C06FEF7FEFC5010E94620632
:100A80004C01F32DF0683F2E820133FC1BC0822DF8
:100A900090E088169906B0F4B60180E290E00E94DA
:100AA00078062A94F4CFF50137FC859137FE8191C1
:100AB0005F01B60190E00E94780621102A9421E09F
:100AC000821A91088114910471F7E8C0843611F0FC
:100AD000893641F5F80137FE07C060817181828156
:100AE00093810C5F1F4F08C060817181072E000C3D
:100AF000880B990B0E5F1F4FF32DFF763F2E97FF4C
:100B000009C090958095709561957F4F8F4F9F4F4D
:100B1000F0683F2E2AE030E0A3010E94B406882E40
:100B2000861845C0853731F4232D2F7EB22E2AE05A
:100B300030E025C0932D997FB92E8F36C1F018F47F
:100B4000883579F0B5C0803719F0883721F0B0C00A
:100B5000E92FE061BE2EB4FE0DC0FB2DF460BF2E68
:100B600009C034FE0AC0292F2660B22E06C028E034
:100B700030E005C020E130E002C020E132E0F801C1
:100B8000B7FE07C060817181828193810C5F1F4F26
:100B900006C06081718180E090E00E5F1F4FA3016D
:100BA0000E94B406882E8618FB2DFF773F2E36FE56
:100BB0000DC0232D2E7FA22E891458F434FE0BC0B5
:100BC00032FC09C0832D8E7EA82E05C0B82CA32C24
:100BD00003C0B82C01C0B92CA4FE0FC0FE01E80D63
:100BE000F11D8081803321F49A2D997EA92E09C0B0
:100BF000A2FE06C0B394B39404C08A2D867809F08F
:100C0000B394A3FC11C0A0FE06C0B21488F4280C53
:100C1000922C9B180EC0B21460F4B60180E290E0F2
:100C20000E947806B394F7CFB21418F42B1802C0C0
:100C3000982C212CA4FE10C0B60180E390E00E9405
:100C40007806A2FE17C0A1FC03C088E790E002C0AE
:100C500088E590E0B6010CC08A2D867859F0A1FE97
:100C600002C08BE201C080E2A7FC8DE2B60190E0F9
:100C70000E947806891438F4B60180E390E00E945F
:100C800078069A94F7CF8A94F301E80DF11D8081DC
:100C9000B60190E00E9478068110F5CF222009F479
:100CA00042CEB60180E290E00E9478062A94F6CF08
:100CB000F6018681978102C08FEF9FEF2B96E2E1CC
:100CC0000C942E07FC010590615070400110D8F77C
:100CD000809590958E0F9F1F0895FC016150704084
:100CE00001900110D8F7809590958E0F9F1F089561
:100CF0000F931F93CF93DF93FB01238121FD03C04B
:100D00008FEF9FEF2CC022FF16C0468157812481B0
:100D100035814217530744F4A081B1819D012F5FB3
:100D20003F4F318320838C93268137812F5F3F4F44
:100D30003783268314C08B01EC01FB010084F1850D
:100D4000E02D0995892BE1F6D80116968D919C919D
:100D50001797019617969C938E931697CE01DF9165
:100D6000CF911F910F910895FA01AA27283051F1D0
:100D7000203181F1E8946F936E7F6E5F7F4F8F4FCC
:100D80009F4FAF4FB1E03ED0B4E03CD0670F781F2B
:100D9000891F9A1FA11D680F791F8A1F911DA11D10
:100DA0006A0F711D811D911DA11D20D009F4689449
:100DB0003F912AE0269F11243019305D3193DEF6F1
:100DC000CF010895462F4770405D4193B3E00FD0A7
:100DD000C9F7F6CF462F4F70405D4A3318F0495D92
:100DE00031FD4052419302D0A9F7EACFB4E0A69575
:100DF0009795879577956795BA95C9F70097610597
:100E0000710508959B01AC010A2E069457954795EC
:100E100037952795BA95C9F7620F731F841F951FE1
:100E2000A01D08952F923F924F925F926F927F92F2
:100E30008F929F92AF92BF92CF92DF92EF92FF92EA
:100E40000F931F93CF93DF93CDB7DEB7CA1BDB0B96
:100E50000FB6F894DEBF0FBECDBF09942A8839883B
:100E600048885F846E847D848C849B84AA84B98442
:100E7000C884DF80EE80FD800C811B81AA81B9814E
:100E8000CE0FD11D0FB6F894DEBF0FBECDBFED0162
:060E90000895F894FFCF65
:100E9600506572696F64206F662035353520746938
:100EA6006D657220696E206D6963726F7365636F1D
:100EB6006E64733A20256C75004C6F772070756CE4
:100EC6007365206F66203535352074696D6572202F
:100ED600696E206D6963726F7365636F6E64733AD2
:100EE60020256C7500486967682070756C736520ED
:100EF6006F66203535352074696D657220696E2000
:100F06006D6963726F7365636F6E64733A20256CE7
:100F1600750076616C203D20256900436F6E74690B
:100F26006E756F75732074696D657220696E707564
:100F360074207265706F7274696E672073746F7057
:100F46007065642E004144432056616C75653A20F5
:100F56002575004144432056616C75653A20257518
:100F6600206D5600436F6E74696E756F75736C797C
:100F7600207265706F7274204144433020636F6E37
:100F860076657273696F6E20726573756C7420690D
:100F96006E206D560053746F7020636F6E74696EA9
:100FA600756F7573207265706F7274696E67206FE6
:100FB60066204144433020696E70757400546F6733
:100FC600676C6520746865204C454420626974200E
:100FD60034206174203132356D730053746F702084
:100FE600746F67676C696E67204C4544206269744C
:100FF600203400504F525444205374617475733A30
:10100600202558004F435232422053746174757341
:101016003A20256400496E707574206E6F742072D4
:0C10260065636F676E697A65642E0000D8
:00000001FF
