S010000050726F6A656374322E737265630B
S11300000C9434000C9451000C9451000C94510045
S11300100C9451000C9451000C9451000C94510018
S11300200C9451000C9451000C941E010C9451003A
S11300300C9451000C940D010C9451000C9451003B
S11300400C94F1000C9451000C9451000C94510048
S11300500C94D1000C94A7010C9451000C94510001
S11300600C9451000C94510011241FBECFEFD8E022
S1130070DEBFCDBF11E0A0E0B1E0E4EAF3E002C0EE
S113008005900D92AC33B107D9F721E0ACE3B1E0B0
S113009001C01D92AB38B207E1F70E9483000C94B3
S11300A0D0010C9400001092C00088E58093C10038
S11300B087E690E09093C5008093C400089521E002
S11300C020933C01E2E4F1E02DE0208322E0209340
S11300D03D012AE02183FC012081222379F0DC0107
S11300E0E0913D0181E08E0F80933D018D91F0E020
S11300F0EE5BFE4F80838C918111F2CF809142019F
S11301008093C6000895CF93DF93CDB7DEB7EC9705
S11301100FB6F894DEBF0FBECDBF88ED8AB91BB809
S11301200E945300789400EC10E00F2EF6ECEF2EB2
S1130130F12CF02DF80180818823E4F7F701808108
S1130140813629F0823689F08234E9F40EC08EE0DB
S1130150E0E0F1E0DE01119601900D928A95E1F75D
S1130160CE0101960E945F00E5CF84E1EEE0F1E06C
S1130170DE01119601900D928A95E1F7CE01019668
S11301800E945F00D7CF89E1E2E2F1E0DE0111963F
S113019001900D928A95E1F7CE0101960E945F00CD
S11301A0C9CF1F920F920FB60F9211248F93EF9322
S11301B0FF93E0913C0180913D018E1751F081E065
S11301C08E0F80933C01F0E0EE5BFE4F80818093C4
S11301D0C600FF91EF918F910F900FBE0F901F906B
S11301E018951F920F920FB60F9211248F939F931D
S11301F08091890190918A0186BD809176019091C8
S11302007701019690937701809376019F918F9166
S11302100F900FBE0F901F9018951F920F920FB65C
S11302200F9211248F93809188018F5F80938801AE
S11302308F910F900FBE0F901F9018951F920F92E1
S11302400FB60F9211242F933F934F935F936F93A5
S11302507F938F939F93AF93BF93EF93FF932091DB
S11302608600309187003093870120938601809126
S1130270880190E0A0E0B0E0DC0199278827409154
S11302807A0150917B01841B950BA109B109820F5E
S1130290931FA11DB11DB695A7959795879580933A
S11302A03E0190933F01A0934001B09341012091FE
S11302B0810020FF09C08093800190938101A09365
S11302C08201B093830108C080937C0190937D01E7
S11302D0A0937E01B0937F01E1E8F0E08081808308
S11302E0809186019091870190937B0180937A019C
S11302F01092880140917C0150917D0160917E01B2
S113030070917F018091800190918101A09182017F
S1130310B0918301840F951FA61FB71F85369105E1
S1130320A105B10510F05E9A01C05E98FF91EF91AE
S1130330BF91AF919F918F917F916F915F914F91F9
S11303403F912F910F900FBE0F901F9018951F9201
S11303500F920FB60F9211242F938F939F93809136
S1130360780090917900909375018093740181E0F5
S113037090E0909379018093780180917401909139
S113038075018333934010F05F9A02C08BB18BB92F
S11303909F918F912F910F900FBE0F901F901895E2
S10703A0F894FFCFFB
S11303A4546861742077617320616E20610054681D
S11303B461742077617320612062206F7220612050
S11303C442005468617420776173206E6F742061F5
S10F03D46E2061206F7220612062000026
S9030000FC
