S010000050726F6A656374322E737265630B
S11300000C947C000C9499000C9499000C94990025
S11300100C9499000C9499000C9499000C949900F8
S11300200C9499000C9499000C943C040C94990041
S11300300C9499000C942B040C9499000C94990042
S11300400C94F0030C9499000C9499000C9499006E
S11300500C94D0030C94F6040C9499000C9499001D
S11300600C9499000C9499007C018A019D01B001C3
S1130070C301D601E901FC010F0222025603560313
S113008056035603560356035603AC0256038C021A
S113009056039C02560356036F0256035603560337
S11300A05202ED02FD0256032D035603560342038A
S11300B035021D03C4020D035603560356035603AB
S11300C056035603560356035603AC0256038C02DA
S11300D056039C02560356036F02560356035603F7
S11300E05202ED02FD0256032D035603560342034A
S11300F035021D03C4020D0311241FBECFEFD8E047
S1130100DEBFCDBF14E0A0E0B1E0E0E2F0E102C068
S113011005900D92A830B107D9F724E0A8E0B4E027
S113012001C01D92A536B207E1F70E9427010C9485
S11301300E080C9400008DE390E090936404809387
S1130140630481E090E090935F0480935E041092D6
S113015041041092400485E085BD14BC8091630481
S11301609091640486BD81E080936E00089510929E
S1130170800082E88093810081E280936F00109276
S11301804F0410924E0410920A0410920B04109221
S11301900C0410920D041092500410925104109209
S11301A052041092530410925A0410925B04109259
S11301B05C0410925D0410924D0410924C04089556
S11301C085E08093B10081E28093B00010927000CA
S11301D0089510924B0410924A0480E480937C00AA
S11301E08FEE80937A0084E080937B0008951092D0
S11301F0C00088E58093C10087E690E09093C50035
S11302008093C400089521E020930804EEE0F4E014
S11302102DE0208322E0209309042AE02183FC01BD
S11302202081222379F0DC01E091090481E08E0F22
S1130230809309048D91F0E0E25FFB4F80838C9101
S11302408111F2CF80910E048093C6000895CF935C
S1130250DF93CDB7DEB7EC970FB6F894DEBF0FBED1
S1130260CDBF88ED8AB90E94F7000E949B000E94CE
S1130270B7000E94E0000E94E900789400EC10E0CE
S11302800F2EF6ECCF2ED12CF02DCE0101967C0151
S11302900F2EF4EBAF2EB12CF02D0F2EF0EE2F2EEF
S11302A0F3E03F2EF02D44244394512C0F2EF8E814
S11302B08F2EF3E19F2EF02D0F2EFFE26F2EF3E031
S11302C07F2EF02DD8018C9188230CF0FAC18091F7
S11302D04C0490914D04019709F0F3C1D601EC91BF
S11302E08E2F90E0FC01F097E834F10508F0DEC1B0
S11302F0EC5CFF4F0C941E0585E1E0E0F1E0D701D2
S113030001900D928A95E1F7C7010E940301F5015E
S11303101082D7C185E191E09F938F93FF92EF9272
S11303200E942405C7010E9403018AE1D5018C9330
S11303300F900F900F900F90C4C186E391E09F93AC
S11303408F93FF92EF920E942405C7010E9403013C
S113035082E3F50180830F900F900F900F90B1C14D
S113036087E591E09F938F93FF92EF920E9424057B
S1130370C7010E9403018DE4D5018C930F900F9067
S11303800F900F909EC188E791E09F938F93FF9207
S1130390EF920E942405C7010E94030186E6F5013D
S11303A080830F900F900F900F908BC189E991E09B
S11303B09F938F93FF92EF920E942405C7010E949E
S11303C0030180E8D5018C930F900F900F900F904C
S11303D078C18AEB91E09F938F93FF92EF920E94F2
S11303E02405C7010E9403018AE9F50180830F9067
S11303F00F900F900F9065C18BED91E09F938F93B9
S1130400FF92EF920E942405C7010E94030183EB2F
S1130410D5018C930F900F900F900F9052C18CEFD9
S113042091E09F938F93FF92EF920E942405C7015E
S11304300E9403018DECF50180830F900F900F90C3
S11304400F903FC18DE192E09F938F93FF92EF92C3
S11304500E942405C7010E94030186EED5018C93F6
S11304600F900F900F900F902CC180915404909195
S11304705504A0915604B0915704BF93AF939F9332
S11304808F93EEE3F2E0FF93EF93FF92EF920E94DB
S11304902405C7010E9403010FB6F894DEBF0FBE06
S11304A0CDBF0FC180915D048F9380915C048F93C5
S11304B080915B048F9380915A048F93A7E6B2E0F6
S11304C0BF93AF93FF92EF920E942405C7010E944D
S11304D003010FB6F894DEBF0FBECDBFF2C080910A
S11304E053048F93809152048F93809151048F937E
S11304F0809150048F93A3E9B2E0BF93AF93FF922E
S1130500EF920E942405C7010E9403010FB6F894DC
S1130510DEBF0FBECDBFD5C087E3E0ECF2E0D7016C
S113052001900D928A95E1F7C7010E940301509250
S1130530450440924404C5C08AE2E7EFF2E0D701E3
S113054001900D928A95E1F7C7010E940301109270
S1130550450410924404B5C0809142049091430430
S11305609F938F93A1E2B3E0BF93AF93FF92EF9277
S11305700E942405C7010E9403010F900F900F9061
S11305800F900F900F909DC020914204309143042E
S1130590289DC001299D900D389D900D1124892F0F
S11305A09927869586959093490480934804809171
S11305B04804909149049F938F937F926F92FF9286
S11305C0EF920E942405C7010E9403010F900F902F
S11305D00F900F900F900F9074C081E3E0E4F3E06C
S11305E0D70101900D928A95E1F7C7010E9403019A
S11305F0509259044092580464C088E2E1E7F3E061
S1130600D70101900D928A95E1F7C7010E94030179
S1130610109259041092580454C08EE1E9E9F3E0B1
S1130620D70101900D928A95E1F7509241044092CE
S11306304004C7010E94030144C088E1E7EBF3E0F2
S1130640D70101900D928A95E1F71092410410921E
S11306504004C7010E94030134C089B11F928F93E3
S11306608FEC93E09F938F93FF92EF920E94240567
S1130670C7010E9403010F900F900F900F900F90ED
S11306800F901FC0F50180811F928F933F922F928C
S1130690FF92EF920E942405C7010E9403010F906C
S11306A00F900F900F900F900F900BC086E1E1EF29
S11306B0F3E0D70101900D928A95E1F7C7010E94FA
S11306C003018091440490914504019741F5909170
S11306D00904809108049813F5CD209150043091B9
S11306E0510480915A0490915B04820F931F9F934D
S11306F08F9385E293E09F938F93FF92EF920E94F2
S11307002405C7010E94030110924D0410924C0469
S11307100F900F900F900F900F900F90D3CD80916A
S11307204A0490914B04019709F0CCCD8091580470
S113073090915904019709F0C5CD909109048091D5
S113074008049813BFCD2091420430914304289D9E
S1130750C001299D900D389D900D1124892F992752
S11307608695869590934904809348048091480423
S1130770909149049F938F937F926F92FF92EF928F
S11307800E942405C7010E94030110924B04109299
S11307904A040F900F900F900F900F900F9092CDEE
S11307A01F920F920FB60F9211248F93EF93FF9322
S11307B0E0910804809109048E1751F081E08E0FB6
S11307C080930804F0E0E25FFB4F80818093C600D1
S11307D0FF91EF918F910F900FBE0F901F9018957E
S11307E01F920F920FB60F9211242F933F938F9362
S11307F09F93809163049091640486BD8091460424
S11308009091470401969093470480934604809105
S11308104004909141040197A1F420914604309141
S1130820470480915E0490915F042817390750F0C3
S11308309BB180E189278BB910924704109246043A
S113084001C05C989F918F913F912F910F900FBEA3
S11308500F901F9018951F920F920FB60F921124AC
S11308608F93809162048F5F809362048F910F90C5
S11308700FBE0F901F9018951F920F920FB60F92F4
S113088011242F933F934F935F936F937F938F9391
S11308909F93AF93BF93EF93FF9320918600309182
S11308A08700309361042093600481E090E090938A
S11308B04D0480934C048091620490E0A0E0B0E089
S11308C0DC019927882740914E0450914F04841BE2
S11308D0950BA109B109820F931FA11DB11D80932E
S11308E0540490935504A0935604B09357048091F4
S11308F0540490915504A0915604B0915704B695B0
S1130900A7959795879580930A0490930B04A093D9
S11309100C04B0930D048091810080FF15C0809178
S1130920540490915504A0915604B0915704B6957F
S1130930A7959795879580935A0490935B04A09309
S11309405C04B0935D0414C08091540490915504E8
S1130950A0915604B0915704B695A795979587959D
S11309608093500490935104A0935204B093530481
S1130970E1E8F0E0908180E489278083809160043D
S11309809091610490934F0480934E0410926204FA
S11309904091500450915104609152047091530459
S11309A080915A0490915B04A0915C04B0915D0421
S11309B0840F951FA61FB71F85369105A105B105A4
S11309C010F05E9A02C08BB18BB9FF91EF91BF9189
S11309D0AF919F918F917F916F915F914F913F91D3
S11309E02F910F900FBE0F901F9018951F920F928A
S11309F00FB60F9211242F938F939F9380917800B9
S1130A0090917900909343048093420481E090E0B4
S1130A1090934B0480934A04809142049091430440
S1130A208333934010F05F9A01C05F989F918F9138
S1130A302F910F900FBE0F901F901895EE0FFF1F70
S1130A400590F491E02D0994AEE0B0E0EAE2F5E01F
S1130A500C94E5070D891E8986E08C831A8309832B
S1130A608FEF9FE79E838D83AE01475E5F4F6F8953
S1130A70788DCE0101960E944605EF81F885E00F3E
S1130A80F11F10822E96E4E00C940108ABE0B0E074
S1130A90ECE4F5E00C94D7076C017B018A01FC01BE
S1130AA017821682838181FFCCC1CE0101963C015D
S1130AB0F6019381F70193FD859193FF81917F0165
S1130AC0882309F4BAC1853239F493FD859193FFE3
S1130AD081917F01853229F4B60190E00E943D079F
S1130AE0E7CF912C212C312CFFE1F315D8F08B3278
S1130AF079F038F4803279F08332A1F4232D206127
S1130B001DC08D3261F0803369F4232D216016C03D
S1130B10832D8260382EE32DE4603E2E2AC0F32D0F
S1130B20F8601DC037FC2DC020ED280F2A3040F09E
S1130B308E32B9F436FC81C1232D2064322E19C0C3
S1130B4036FE06C08AE0989E200D1124922E11C014
S1130B50EAE02E9E200D1124222EF32DF0623F2E6A
S1130B6008C08C3621F4832D8068382E02C0883664
S1130B7041F4F70193FD859193FF81917F018111E8
S1130B80B3CF982F9F7D9554933028F40C5F1F4F5B
S1130B909FE399830DC0833631F0833771F0833539
S1130BA009F059C021C0F801808189830E5F1F4F6D
S1130BB088248394912C530113C02801F2E04F0E32
S1130BC0511CF801A080B18036FE03C0692D70E08D
S1130BD002C06FEF7FEFC5010E9432074C01820112
S1130BE0F32DFF773F2E16C0280122E0420E511C40
S1130BF0F801A080B18036FE03C0692D70E002C008
S1130C006FEF7FEFC5010E9427074C01F32DF068B9
S1130C103F2E820133FC1BC0822D90E0881699067A
S1130C20B0F4B60180E290E00E943D072A94F4CF2C
S1130C30F50137FC859137FE81915F01B60190E0A3
S1130C400E943D0721102A9421E0821A9108811400
S1130C50910471F7E8C0843611F0893641F5F80142
S1130C6037FE07C060817181828193810C5F1F4FC1
S1130C7008C060817181072E000C880B990B0E5FF0
S1130C801F4FF32DFF763F2E97FF09C09095809557
S1130C90709561957F4F8F4F9F4FF0683F2E2AE0EC
S1130CA030E0A3010E947907882E861845C0853755
S1130CB031F4232D2F7EB22E2AE030E025C0932D6F
S1130CC0997FB92E8F36C1F018F4883579F0B5C004
S1130CD0803719F0883721F0B0C0E92FE061BE2ECB
S1130CE0B4FE0DC0FB2DF460BF2E09C034FE0AC053
S1130CF0292F2660B22E06C028E030E005C020E18E
S1130D0030E002C020E132E0F801B7FE07C06081A4
S1130D107181828193810C5F1F4F06C06081718154
S1130D2080E090E00E5F1F4FA3010E947907882E98
S1130D308618FB2DFF773F2E36FE0DC0232D2E7F08
S1130D40A22E891458F434FE0BC032FC09C0832D42
S1130D508E7EA82E05C0B82CA32C03C0B82C01C0CD
S1130D60B92CA4FE0FC0FE01E80DF11D8081803373
S1130D7021F49A2D997EA92E09C0A2FE06C0B3942F
S1130D80B39404C08A2D867809F0B394A3FC11C0EF
S1130D90A0FE06C0B21488F4280C922C9B180EC036
S1130DA0B21460F4B60180E290E00E943D07B3946F
S1130DB0F7CFB21418F42B1802C0982C212CA4FEDF
S1130DC010C0B60180E390E00E943D07A2FE17C068
S1130DD0A1FC03C088E790E002C088E590E0B6017A
S1130DE00CC08A2D867859F0A1FE02C08BE201C0A6
S1130DF080E2A7FC8DE2B60190E00E943D078914D1
S1130E0038F4B60180E390E00E943D079A94F7CF4E
S1130E108A94F301E80DF11D8081B60190E00E94EF
S1130E203D078110F5CF222009F442CEB60180E2BD
S1130E3090E00E943D072A94F6CFF60186819781BF
S1130E4002C08FEF9FEF2B96E2E10C94F307FC01B5
S1130E500590615070400110D8F7809590958E0FE1
S1130E609F1F0895FC016150704001900110D8F754
S1130E70809590958E0F9F1F08950F931F93CF9386
S1130E80DF93FB01238121FD03C08FEF9FEF2CC073
S1130E9022FF16C0468157812481358142175307AA
S1130EA044F4A081B1819D012F5F3F4F31832083A2
S1130EB08C93268137812F5F3F4F3783268314C05D
S1130EC08B01EC01FB010084F185E02D0995892B50
S1130ED0E1F6D80116968D919C9117970196179675
S1130EE09C938E931697CE01DF91CF911F910F9112
S1130EF00895FA01AA27283051F1203181F1E894AC
S1130F006F936E7F6E5F7F4F8F4F9F4FAF4FB1E0F8
S1130F103ED0B4E03CD0670F781F891F9A1FA11DF3
S1130F20680F791F8A1F911DA11D6A0F711D811DF4
S1130F30911DA11D20D009F468943F912AE0269FB9
S1130F4011243019305D3193DEF6CF010895462F18
S1130F504770405D4193B3E00FD0C9F7F6CF462FF9
S1130F604F70405D4A3318F0495D31FD4052419362
S1130F7002D0A9F7EACFB4E0A6959795879577951F
S1130F806795BA95C9F700976105710508959B01A6
S1130F90AC010A2E06945795479537952795BA952F
S1130FA0C9F7620F731F841F951FA01D08952F9208
S1130FB03F924F925F926F927F928F929F92AF92E5
S1130FC0BF92CF92DF92EF92FF920F931F93CF9332
S1130FD0DF93CDB7DEB7CA1BDB0B0FB6F894DEBFC9
S1130FE00FBECDBF09942A88398848885F846E84EF
S1130FF07D848C849B84AA84B984C884DF80EE8039
S1131000FD800C811B81AA81B981CE0FD11D0FB641
S1131010F894DEBF0FBECDBFED010895F894FFCF65
S11310204C45442062697420332073657420746FC6
S1131030204F4646004C4544206269742033207397
S1131040657420746F2031302525206272696768C9
S1131050746E657373004C454420626974203320B8
S113106073657420746F203230252520627269679D
S113107068746E657373004C454420626974203350
S11310802073657420746F203330252520627269C3
S11310906768746E657373004C45442062697420FC
S11310A0332073657420746F2034302525206272D8
S11310B0696768746E657373004C45442062697493
S11310C020332073657420746F2035302525206209
S11310D072696768746E657373004C454420626975
S11310E07420332073657420746F203630252520D6
S11310F06272696768746E657373004C454420625C
S1131100697420332073657420746F20373025256B
S1131110206272696768746E657373004C4544207D
S113112062697420332073657420746F203830250D
S113113025206272696768746E657373004C454458
S11311402062697420332073657420746F203930F1
S11311502525206272696768746E65737300506533
S113116072696F64206F66203535352074696D654A
S11311707220696E206D6963726F7365636F6E644C
S1131180733A20256C75004C6F772070756C73650D
S1131190206F66203535352074696D657220696E5F
S11311A0206D6963726F7365636F6E64733A202593
S11311B06C7500486967682070756C7365206F668C
S11311C0203535352074696D657220696E206D692E
S11311D063726F7365636F6E64733A20256C750078
S11311E0436F6E74696E756F75736C792072657078
S11311F06F72742074696D657220696E70757420E5
S1131200706572696F6420696E206D6963726F73B3
S113121065636F6E647300436F6E74696E756F758A
S1131220732074696D657220696E707574207265BF
S1131230706F7274696E672073746F707065642E5A
S1131240004144432056616C75653A202575004180
S113125044432056616C75653A202575206D56000F
S1131260436F6E74696E756F75736C7920726570F7
S11312706F7274204144433020636F6E76657273DD
S1131280696F6E20726573756C7420696E206D567B
S11312900053746F7020636F6E74696E756F75732D
S11312A0207265706F7274696E67206F66204144A6
S11312B0433020696E70757400546F67676C6520E5
S11312C0746865204C45442062697420342061743C
S11312D0203132356D730053746F7020746F6767FB
S11312E06C696E67204C4544206269742034005058
S11312F04F525444205374617475733A2025580036
S11313004F43523242205374617475733A202564FA
S113131000496E707574206E6F74207265636F6718
S10B13206E697A65642E000079
S9030000FC
