:100000000C947C000C9499000C9499000C94990029
:100010000C9499000C9499000C9499000C949900FC
:100020000C9499000C9499000C9440040C94990041
:100030000C9499000C942F040C9499000C94990042
:100040000C94F4030C9499000C9499000C9499006E
:100050000C94D4030C94FA040C9499000C94990019
:100060000C9499000C94990080018E01A101B401B7
:10007000C701DA01ED010002130226025A035A03F6
:100080005A035A035A035A035A03B0025A039002FE
:100090005A03A0025A035A0373025A035A035A031B
:1000A0005602F10201035A0331035A035A0346036D
:1000B00039022103C80211035A035A035A035A038F
:1000C0005A035A035A035A035A03B0025A039002BE
:1000D0005A03A0025A035A0373025A035A035A03DB
:1000E0005602F10201035A0331035A035A0346032D
:1000F00039022103C802110311241FBECFEFD8E03B
:10010000DEBFCDBF14E0A0E0B1E0E8E2F0E102C064
:1001100005900D92AE30B107D9F724E0AEE0B4E01F
:1001200001C01D92AB36B207E1F70E942B010C947F
:1001300012080C9400008DE390E090936A04809381
:10014000690481E090E090936504809364041092C8
:1001500047041092460485E085BD14BC8091690473
:1001600090916A0486BD81E080936E00089510929C
:10017000800082E88093810081E280936F0010927A
:10018000550410925404109210041092110410920D
:1001900012041092130410925604109257041092F5
:1001A00058041092590484E090E0A0E0B0E08093FD
:1001B000600490936104A0936204B093630410926E
:1001C000530410925204089585E08093B10081E2B7
:1001D0008093B00010927000089510925104109214
:1001E000500480E480937C008FEE80937A0084E05A
:1001F00080937B0008951092C00088E58093C10031
:1002000087E690E09093C5008093C400089521E0B4
:1002100020930E04E4E1F4E02DE0208322E020931B
:100220000F042AE02183FC012081222379F0DC01E4
:10023000E0910F0481E08E0F80930F048D91F0E028
:10024000EC5EFB4F80838C918111F2CF809114047E
:100250008093C6000895CF93DF93CDB7DEB7EC97B8
:100260000FB6F894DEBF0FBECDBF88ED8AB90E94ED
:10027000FB000E949B000E94B7000E94E4000E94C5
:10028000ED00789400EC10E00F2EF6ECCF2ED12C80
:10029000F02DCE0101967C010F2EF4EBAF2EB12C88
:1002A000F02D0F2EF6EE2F2EF3E03F2EF02D4424EE
:1002B0004394512C0F2EF8E88F2EF3E19F2EF02D52
:1002C0000F2EF2E36F2EF3E07F2EF02DD8018C91EC
:1002D00088230CF0FAC18091520490915304019745
:1002E00009F0F3C1D601EC918E2F90E0FC01F0975C
:1002F000E834F10508F0DEC1EC5CFF4F0C942205F8
:1003000085E1E0E0F1E0D70101900D928A95E1F7F7
:10031000C7010E940701F5011082D7C185E191E074
:100320009F938F93FF92EF920E942805C7010E942E
:1003300007018AE1D5018C930F900F900F900F90D9
:10034000C4C186E391E09F938F93FF92EF920E9446
:100350002805C7010E94070182E3F50180830F9001
:100360000F900F900F90B1C187E591E09F938F930D
:10037000FF92EF920E942805C7010E9407018DE4B9
:10038000D5018C930F900F900F900F909EC188E72E
:1003900091E09F938F93FF92EF920E942805C701EF
:1003A0000E94070186E6F50180830F900F900F9061
:1003B0000F908BC189E991E09F938F93FF92EF9209
:1003C0000E942805C7010E94070180E8D5018C938F
:1003D0000F900F900F900F9078C18AEB91E09F9350
:1003E0008F93FF92EF920E942805C7010E94070198
:1003F0008AE9F50180830F900F900F900F9065C1EF
:100400008BED91E09F938F93FF92EF920E942805CE
:10041000C7010E94070183EBD5018C930F900F90C9
:100420000F900F9052C18CEF91E09F938F93FF92AA
:10043000EF920E942805C7010E9407018DECF5018B
:1004400080830F900F900F900F903FC18DE192E04D
:100450009F938F93FF92EF920E942805C7010E94FD
:10046000070186EED5018C930F900F900F900F909F
:100470002CC180915A0490915B04A0915C04B091CE
:100480005D04BF93AF939F938F93EEE3F2E0FF93EE
:10049000EF93FF92EF920E942805C7010E94070187
:1004A0000FB6F894DEBF0FBECDBF0FC180916304BD
:1004B0008F93809162048F93809161048F938091D8
:1004C00060048F93A7E6B2E0BF93AF93FF92EF92E1
:1004D0000E942805C7010E9407010FB6F894DEBFED
:1004E0000FBECDBFF2C0809159048F938091580404
:1004F0008F93809157048F93809156048F93A3E933
:10050000B2E0BF93AF93FF92EF920E942805C7011C
:100510000E9407010FB6F894DEBF0FBECDBFD5C055
:100520008AE3E0ECF2E0D70101900D928A95E1F7C1
:10053000C7010E94070150924B0440924A04C5C073
:100540008AE2EAEFF2E0D70101900D928A95E1F795
:10055000C7010E94070110924B0410924A04B5C0D3
:1005600080914804909149049F938F93A4E2B3E053
:10057000BF93AF93FF92EF920E942805C7010E949C
:1005800007010F900F900F900F900F900F909DC04C
:100590002091480430914904289DC001299D900D67
:1005A000389D900D1124892F9927869586959093D3
:1005B0004F0480934E0480914E0490914F049F937A
:1005C0008F937F926F92FF92EF920E942805C7014E
:1005D0000E9407010F900F900F900F900F900F90B7
:1005E00074C084E3E3E4F3E0D70101900D928A95AF
:1005F000E1F7C7010E94070150925F0440925E0438
:1006000064C088E2E7E7F3E0D70101900D928A9594
:10061000E1F7C7010E94070110925F0410925E0487
:1006200054C08EE1EFE9F3E0D70101900D928A9575
:10063000E1F75092470440924604C7010E94070127
:1006400044C088E1EDEBF3E0D70101900D928A956B
:10065000E1F71092470410924604C7010E94070177
:1006600034C089B11F928F9385ED93E09F938F9350
:10067000FF92EF920E942805C7010E9407010F9088
:100680000F900F900F900F900F901FC0F501808179
:100690001F928F933F922F92FF92EF920E94280514
:1006A000C7010E9407010F900F900F900F900F90BD
:1006B0000F900BC086E1E7EFF3E0D70101900D92B8
:1006C0008A95E1F7C7010E94070180914A04909141
:1006D0004B04019741F590910F0480910E049813FB
:1006E000F5CD20915604309157048091600490918B
:1006F0006104820F931F9F938F9388E293E09F93EF
:100700008F93FF92EF920E942805C7010E94070174
:1007100010925304109252040F900F900F900F906C
:100720000F900F90D3CD8091500490915104019778
:1007300009F0CCCD80915E0490915F04019709F09F
:10074000C5CD90910F0480910E049813BFCD2091D8
:10075000480430914904289DC001299D900D389D81
:10076000900D1124892F99278695869590934F0493
:1007700080934E0480914E0490914F049F938F93E9
:100780007F926F92FF92EF920E942805C7010E940C
:10079000070110925104109250040F900F900F9087
:1007A0000F900F900F9092CD1F920F920FB60F9255
:1007B00011248F93EF93FF93E0910E0480910F0427
:1007C0008E1751F081E08E0F80930E04F0E0EC5E06
:1007D000FB4F80818093C600FF91EF918F910F9026
:1007E0000FBE0F901F9018951F920F920FB60F9289
:1007F00011242F933F938F939F938091690490913D
:100800006A0486BD80914C0490914D0401969093AA
:100810004D0480934C0480914604909147040197C5
:10082000A1F420914C0430914D0480916404909186
:1008300065042817390750F09BB180E189278BB9EF
:1008400010924D0410924C0401C05C989F918F91BE
:100850003F912F910F900FBE0F901F9018951F92F0
:100860000F920FB60F9211248F93809168048F5FBF
:10087000809368048F910F900FBE0F901F90189572
:100880001F920F920FB60F9211242F933F934F9305
:100890005F936F937F938F939F93AF93BF93EF93E8
:1008A000FF93209186003091870030936704209356
:1008B000660481E090E09093530480935204809109
:1008C000680490E0A0E0B0E0DC019927882740911F
:1008D000540450915504841B950BA109B109820F52
:1008E000931FA11DB11D80935A0490935B04A093A4
:1008F0005C04B0935D0480915A0490915B04A091D4
:100900005C04B0915D04B695A79597958795809303
:10091000100490931104A0931204B09313048091D7
:10092000810086FF15C080915A0490915B04A091CC
:100930005C04B0915D04B695A795979587958093D3
:10094000600490936104A0936204B093630414C0A4
:1009500080915A0490915B04A0915C04B0915D0475
:10096000B695A795979587958093560490935704CD
:10097000A0935804B0935904E1E8F0E0908180E43A
:100980008927808380916604909167049093550431
:100990008093540410926804409156045091570477
:1009A00060915804709159048091600490916104A1
:1009B000A0916204B0916304840F951FA61FB71F16
:1009C00085369105A105B10510F05E9A02C08BB184
:1009D0008BB9FF91EF91BF91AF919F918F917F91D3
:1009E0006F915F914F913F912F910F900FBE0F909C
:1009F0001F9018951F920F920FB60F9211242F93EC
:100A00008F939F93809178009091790090934904FF
:100A10008093480481E090E09093510480935004C7
:100A200080914804909149048333934010F05F9A79
:100A300001C05F989F918F912F910F900FBE0F90E3
:100A40001F901895EE0FFF1F0590F491E02D09946B
:100A5000AEE0B0E0EEE2F5E00C94E9070D891E8906
:100A600086E08C831A8309838FEF9FE79E838D83B3
:100A7000AE01475E5F4F6F89788DCE0101960E946F
:100A80004A05EF81F885E00FF11F10822E96E4E011
:100A90000C940508ABE0B0E0E0E5F5E00C94DB0772
:100AA0006C017B018A01FC0117821682838181FF20
:100AB000CCC1CE0101963C01F6019381F70193FD73
:100AC000859193FF81917F01882309F4BAC1853212
:100AD00039F493FD859193FF81917F01853229F44B
:100AE000B60190E00E944107E7CF912C212C312CD8
:100AF000FFE1F315D8F08B3279F038F4803279F0D9
:100B00008332A1F4232D20611DC08D3261F080332A
:100B100069F4232D216016C0832D8260382EE32DC9
:100B2000E4603E2E2AC0F32DF8601DC037FC2DC0B6
:100B300020ED280F2A3040F08E32B9F436FC81C106
:100B4000232D2064322E19C036FE06C08AE0989EFE
:100B5000200D1124922E11C0EAE02E9E200D1124AA
:100B6000222EF32DF0623F2E08C08C3621F4832D07
:100B70008068382E02C0883641F4F70193FD8591D4
:100B800093FF81917F018111B3CF982F9F7D955461
:100B9000933028F40C5F1F4F9FE399830DC0833679
:100BA00031F0833771F0833509F059C021C0F80165
:100BB000808189830E5F1F4F88248394912C530179
:100BC00013C02801F2E04F0E511CF801A080B18043
:100BD00036FE03C0692D70E002C06FEF7FEFC501E4
:100BE0000E9436074C018201F32DFF773F2E16C07D
:100BF000280122E0420E511CF801A080B18036FE8F
:100C000003C0692D70E002C06FEF7FEFC5010E9445
:100C10002B074C01F32DF0683F2E820133FC1BC0E3
:100C2000822D90E088169906B0F4B60180E290E03B
:100C30000E9441072A94F4CFF50137FC859137FED5
:100C400081915F01B60190E00E94410721102A9432
:100C500021E0821A91088114910471F7E8C084366A
:100C600011F0893641F5F80137FE07C060817181C6
:100C7000828193810C5F1F4F08C060817181072EB4
:100C8000000C880B990B0E5F1F4FF32DFF763F2E44
:100C900097FF09C090958095709561957F4F8F4F14
:100CA0009F4FF0683F2E2AE030E0A3010E947D07AD
:100CB000882E861845C0853731F4232D2F7EB22E1D
:100CC0002AE030E025C0932D997FB92E8F36C1F0F0
:100CD00018F4883579F0B5C0803719F0883721F0DD
:100CE000B0C0E92FE061BE2EB4FE0DC0FB2DF46054
:100CF000BF2E09C034FE0AC0292F2660B22E06C0BE
:100D000028E030E005C020E130E002C020E132E020
:100D1000F801B7FE07C060817181828193810C5F09
:100D20001F4F06C06081718180E090E00E5F1F4F11
:100D3000A3010E947D07882E8618FB2DFF773F2E8A
:100D400036FE0DC0232D2E7FA22E891458F434FEBA
:100D50000BC032FC09C0832D8E7EA82E05C0B82C96
:100D6000A32C03C0B82C01C0B92CA4FE0FC0FE01F7
:100D7000E80DF11D8081803321F49A2D997EA92EF2
:100D800009C0A2FE06C0B394B39404C08A2D86782D
:100D900009F0B394A3FC11C0A0FE06C0B21488F4FD
:100DA000280C922C9B180EC0B21460F4B60180E29D
:100DB00090E00E944107B394F7CFB21418F42B18B7
:100DC00002C0982C212CA4FE10C0B60180E390E054
:100DD0000E944107A2FE17C0A1FC03C088E790E073
:100DE00002C088E590E0B6010CC08A2D867859F0E3
:100DF000A1FE02C08BE201C080E2A7FC8DE2B60139
:100E000090E00E944107891438F4B60180E390E035
:100E10000E9441079A94F7CF8A94F301E80DF11DDF
:100E20008081B60190E00E9441078110F5CF222019
:100E300009F442CEB60180E290E00E9441072A9474
:100E4000F6CFF6018681978102C08FEF9FEF2B9638
:100E5000E2E10C94F707FC0105906150704001102D
:100E6000D8F7809590958E0F9F1F0895FC016150D3
:100E7000704001900110D8F7809590958E0F9F1FBC
:100E800008950F931F93CF93DF93FB01238121FDDF
:100E900003C08FEF9FEF2CC022FF16C04681578101
:100EA000248135814217530744F4A081B1819D010B
:100EB0002F5F3F4F318320838C93268137812F5FB3
:100EC0003F4F3783268314C08B01EC01FB01008464
:100ED000F185E02D0995892BE1F6D80116968D91C3
:100EE0009C911797019617969C938E931697CE0117
:100EF000DF91CF911F910F910895FA01AA27283011
:100F000051F1203181F1E8946F936E7F6E5F7F4FD6
:100F10008F4F9F4FAF4FB1E03ED0B4E03CD0670F52
:100F2000781F891F9A1FA11D680F791F8A1F911DA5
:100F3000A11D6A0F711D811D911DA11D20D009F4F5
:100F400068943F912AE0269F11243019305D319337
:100F5000DEF6CF010895462F4770405D4193B3E020
:100F60000FD0C9F7F6CF462F4F70405D4A3318F0C7
:100F7000495D31FD4052419302D0A9F7EACFB4E078
:100F8000A6959795879577956795BA95C9F7009730
:100F90006105710508959B01AC010A2E06945795D1
:100FA000479537952795BA95C9F7620F731F841F28
:100FB000951FA01D08952F923F924F925F926F92BE
:100FC0007F928F929F92AF92BF92CF92DF92EF92D9
:100FD000FF920F931F93CF93DF93CDB7DEB7CA1B5A
:100FE000DB0B0FB6F894DEBF0FBECDBF09942A8885
:100FF000398848885F846E847D848C849B84AA842D
:10100000B984C884DF80EE80FD800C811B81AA81B9
:10101000B981CE0FD11D0FB6F894DEBF0FBECDBF84
:08102000ED010895F894FFCFE3
:101028004C45442062697420332073657420746FC2
:10103800204F4646004C4544206269742033207393
:10104800657420746F2031302525206272696768C5
:10105800746E657373004C454420626974203320B4
:1010680073657420746F2032302525206272696799
:1010780068746E657373004C45442062697420334C
:101088002073657420746F203330252520627269BF
:101098006768746E657373004C45442062697420F8
:1010A800332073657420746F2034302525206272D4
:1010B800696768746E657373004C4544206269748F
:1010C80020332073657420746F2035302525206205
:1010D80072696768746E657373004C454420626971
:1010E8007420332073657420746F203630252520D2
:1010F8006272696768746E657373004C4544206258
:10110800697420332073657420746F203730252567
:10111800206272696768746E657373004C45442079
:1011280062697420332073657420746F2038302509
:1011380025206272696768746E657373004C454454
:101148002062697420332073657420746F203930ED
:101158002525206272696768746E6573730050652F
:1011680072696F64206F66203535352074696D6546
:101178007220696E206D6963726F7365636F6E6448
:10118800733A20256C75004C6F772070756C736509
:10119800206F66203535352074696D657220696E5B
:1011A800206D6963726F7365636F6E64733A20258F
:1011B8006C7500486967682070756C7365206F6688
:1011C800203535352074696D657220696E206D692A
:1011D80063726F7365636F6E64733A20256C750074
:1011E800436F6E74696E756F75736C792072657074
:1011F8006F7274696E672074696D657220696E70AC
:10120800757420706572696F6420696E206D6963FA
:10121800726F7365636F6E647300436F6E74696E8B
:10122800756F75732074696D657220696E70757459
:10123800207265706F7274696E672073746F707056
:1012480065642E004144432056616C75653A20253B
:1012580075004144432056616C75653A2025752018
:101268006D5600436F6E74696E756F75736C792077
:101278007265706F7274696E6720414443302063F1
:101288006F6E76657273696F6E20726573756C74B4
:1012980020696E206D560053746F7020636F6E74F2
:1012A800696E756F7573207265706F7274696E6799
:1012B800206F66204144433020696E707574005475
:1012C8006F67676C6520746865204C4544206269C7
:1012D800742034206174203132356D730053746F7B
:1012E8007020746F67676C696E67204C4544206294
:1012F8006974203400504F525444205374617475FB
:10130800733A202558004F43523242205374617477
:1013180075733A20256400496E707574206E6F7479
:0E132800207265636F676E697A65642E00003F
:00000001FF
