S010000050726F6A656374322E737265630B
S11300000C946B000C9488000C9488000C94880069
S11300100C9488000C9488000C9488000C9488003C
S11300200C9488000C9488000C943E030C94880073
S11300300C9488000C942D030C9488000C94880074
S11300400C9411030C9488000C9488000C94880080
S11300500C94F1020C94E9030C9488000C9488002D
S11300600C9488000C948800EC018D02BB018D0275
S1130070DA018D028D029F018D028D028D028101B4
S11300802F0243028D0271028D028D027F026301F1
S11300906302050255028D028D028D028D028D02CE
S11300A08D028D028D028D02EC018D02BB018D0249
S11300B0DA018D028D029F018D028D028D02810174
S11300C02F0243028D0271028D028D027F026301B1
S11300D063020502550211241FBECFEFD8E0DEBF34
S11300E0CDBF12E0A0E0B1E0E6E0FEE002C0059082
S11300F00D92AE3BB107D9F723E0AEEBB2E001C0FD
S11301001D92A931B207E1F70E9409010C9401077D
S11301100C9400008DE390E09093180380931703F0
S113012081E090E0909313038093120385E085BDF2
S113013014BC809117039091180386BD81E08093CD
S11301406E0008951092800082E88093810081E21D
S113015080936F0010920303109202031092C00266
S11301601092C1021092C2021092C30210920403B0
S113017010920503109206031092070310920E03C7
S113018010920F03109210031092110310920103A6
S11301901092000308951092FF021092FE0280E470
S11301A080937C008FEE80937A0084E080937B00C0
S11301B008951092C00088E58093C10087E690E01E
S11301C09093C5008093C400089521E02093BE025B
S11301D0E4ECF2E02DE0208322E02093BF022AE049
S11301E02183FC012081222379F0DC01E091BF020C
S11301F081E08E0F8093BF028D91F0E0EC53FD4FB0
S113020080838C918111F2CF8091C4028093C600C7
S11302100895CF93DF93CDB7DEB7EC970FB6F8947C
S1130220DEBF0FBECDBF88ED8AB91BB80E94D900CE
S11302300E948A000E94A2000E94CB0078940F2E94
S1130240F0EC4F2E512CF02DCE0101966C010F2EA7
S1130250F8E88F2EF3E19F2EF02D0F2EF3ECAF2E46
S1130260F1E0BF2EF02D7C2C6D2C0F2EF5E52F2EFA
S1130270F1E03F2EF02D0F2EF4E0EF2EF3E0FF2EF1
S1130280F02D0EE013E0D2018C9188230CF052C1C2
S11302908091000390910103019709F04BC11092E2
S11302A0010310920003A6ECB0E0EC918E2F90E0D5
S11302B0FC01E154F109E733F10508F02EC1EC5CCF
S11302C0FF4F0C9411048091080390910903A091AD
S11302D00A03B0910B03BF93AF939F938F93E0E016
S11302E0F1E0FF93EF93DF92CF920E941704872DE2
S11302F0962D0E94E5000FB6F894DEBF0FBECDBF69
S113030019C1809111038F93809110038F93809171
S11303100F038F9380910E038F93A9E2B1E0BF93F3
S1130320AF93DF92CF920E941704872D962D0E94DF
S1130330E5000FB6F894DEBF0FBECDBFFBC08091C1
S113034007038F93809106038F93809105038F9306
S1130350809104038F933F922F92DF92CF920E9459
S11303601704872D962D0E94E5000FB6F894DEBF82
S11303700FBECDBFDFC0E1E0F0E0F093F902E093FF
S1130380F8028091F8029091F9029F938F9382E88A
S113039091E09F938F93DF92CF920E941704872D51
S11303A0962D0E94E5000F900F900F900F900F90E4
S11303B00F90C0C08AE2EBE8F1E0A72DB62D0190C2
S11303C00D928A95E1F71092F9021092F802872DA6
S11303D0962D0E94E500AEC08091F6029091F7023E
S11303E09F938F93E5EBF1E0FF93EF93DF92CF922E
S11303F00E941704872D962D0E94E5000F900F9000
S11304000F900F900F900F9095C02091F6023091AD
S1130410F702289DC001299D900D389D900D11244F
S1130420892F9927869586959093FD028093FC02E7
S11304308091FC029091FD029F938F93BF92AF92A3
S1130440DF92CF920E941704872D962D0E94E5001B
S11304500F900F900F900F900F900F906BC081E34F
S1130460E4EDF1E0A72DB62D01900D928A95E1F708
S1130470872D962D0E94E50081E090E090930D0376
S113048080930C0357C088E2E5E0F2E0A72DB62D77
S113049001900D928A95E1F7872D962D0E94E50033
S11304A010920D0310920C0345C08EE1EDE2F2E0D0
S11304B0A72DB62D01900D928A95E1F7872D962DE3
S11304C00E94E50037C088E1EBE4F2E0A72DB62DE9
S11304D001900D928A95E1F7872D962D0E94E500F3
S11304E029C08EE1E3E6F2E0A72DB62D01900D922E
S11304F08A95E1F7872D962D0E94E5001BC087E2BF
S1130500E1E8F2E0A72DB62D01900D928A95E1F76E
S1130510872D962D0E94E5000DC086E1E8EAF2E001
S1130520A72DB62D01900D928A95E1F7872D962D72
S11305300E94E5008091F8029091F902019701F57B
S1130540D7012D913C91F80180819181820F931FF5
S11305509F938F9389EB91E09F938F93DF92CF9238
S11305600E941704872D962D0E94E5001092010326
S1130570109200030F900F900F900F900F900F9018
S113058080910C0390910D03019709F07CCE20918A
S1130590F6023091F702289DC001299D900D389DE7
S11305A0900D1124892F9927869586959093FD02A5
S11305B08093FC028091FC029091FD029F938F93A3
S11305C0BF92AF92DF92CF920E941704872D962D8F
S11305D00E94E5000F900F900F900F900F900F90D6
S11305E044CE1F920F920FB60F9211248F93EF9364
S11305F0FF93E091BE028091BF028E1751F081E01B
S11306008E0F8093BE02F0E0EC53FD4F8081809307
S1130610C600FF91EF918F910F900FBE0F901F9026
S113062018951F920F920FB60F9211248F939F93D8
S1130630809117039091180386BD8091FA029091DE
S1130640FB0201969093FB028093FA029F918F9193
S11306500F900FBE0F901F9018951F920F920FB618
S11306600F9211248F93809116038F5F809316034A
S11306708F910F900FBE0F901F9018951F920F929D
S11306800FB60F9211242F933F934F935F936F9361
S11306907F938F939F93AF93BF9320918600309164
S11306A08700309315032093140381E090E0909326
S11306B00103809300038091160390E0A0E0B0E072
S11306C0DC01992788274091020350910303841B7E
S11306D0950BA109B109820F931FA11DB11D809330
S11306E0080390930903A0930A03B0930B0380912A
S11306F0080390910903A0910A03B0910B03B695E6
S1130700A795979587958093C0029093C102A09373
S1130710C202B093C3028091810080FF15C0809112
S1130720080390910903A0910A03B0910B03B695B5
S1130730A7959795879580930E0390930F03A093A5
S11307401003B093110314C080910803909109031E
S1130750A0910A03B0910B03B695A7959795879539
S11307608093040390930503A0930603B0930703B7
S11307703093030320930203109216034091040361
S113078050910503609106037091070380910E0355
S113079090910F03A0911003B0911103840F951F42
S11307A0A61FB71F85369105A105B10510F05E9A05
S11307B001C01BB8BF91AF919F918F917F916F91B1
S11307C05F914F913F912F910F900FBE0F901F900B
S11307D018951F920F920FB60F9211242F938F9397
S11307E09F9380917800909179009093F702809381
S11307F0F60281E090E09093FF028093FE028091E4
S1130800F6029091F7028333934010F05F9A01C08F
S11308101BB89F918F912F910F900FBE0F901F9037
S11308201895EE0FFF1F0590F491E02D0994AEE0AA
S1130830B0E0EDE1F4E00C94D8060D891E8986E061
S11308408C831A8309838FEF9FE79E838D83AE0188
S1130850475E5F4F6F89788DCE0101960E943904FF
S1130860EF81F885E00FF11F10822E96E4E00C94DE
S1130870F406ABE0B0E0EFE3F4E00C94CA066C01DC
S11308807B018A01FC0117821682838181FFCCC11E
S1130890CE0101963C01F6019381F70193FD859108
S11308A093FF81917F01882309F4BAC1853239F419
S11308B093FD859193FF81917F01853229F4B601DF
S11308C090E00E943006E7CF912C212C312CFFE1DF
S11308D0F315D8F08B3279F038F4803279F0833222
S11308E0A1F4232D20611DC08D3261F0803369F4A1
S11308F0232D216016C0832D8260382EE32DE46001
S11309003E2E2AC0F32DF8601DC037FC2DC020ED0B
S1130910280F2A3040F08E32B9F436FC81C1232DE1
S11309202064322E19C036FE06C08AE0989E200D3F
S11309301124922E11C0EAE02E9E200D1124222EA5
S1130940F32DF0623F2E08C08C3621F4832D80688D
S1130950382E02C0883641F4F70193FD859193FF48
S113096081917F018111B3CF982F9F7D955493304E
S113097028F40C5F1F4F9FE399830DC0833631F039
S1130980833771F0833509F059C021C0F8018081A3
S113099089830E5F1F4F88248394912C530113C0C5
S11309A02801F2E04F0E511CF801A080B18036FE00
S11309B003C0692D70E002C06FEF7FEFC5010E9494
S11309C025064C018201F32DFF773F2E16C0280126
S11309D022E0420E511CF801A080B18036FE03C013
S11309E0692D70E002C06FEF7FEFC5010E941A0607
S11309F04C01F32DF0683F2E820133FC1BC0822D85
S1130A0090E088169906B0F4B60180E290E00E9466
S1130A1030062A94F4CFF50137FC859137FE819195
S1130A205F01B60190E00E94300621102A9421E073
S1130A30821A91088114910471F7E8C0843611F088
S1130A40893641F5F80137FE07C0608171818281E2
S1130A5093810C5F1F4F08C060817181072E000CC9
S1130A60880B990B0E5F1F4FF32DFF763F2E97FFD8
S1130A7009C090958095709561957F4F8F4F9F4FDA
S1130A80F0683F2E2AE030E0A3010E946C06882E15
S1130A90861845C0853731F4232D2F7EB22E2AE0E7
S1130AA030E025C0932D997FB92E8F36C1F018F40C
S1130AB0883579F0B5C0803719F0883721F0B0C097
S1130AC0E92FE061BE2EB4FE0DC0FB2DF460BF2EF5
S1130AD009C034FE0AC0292F2660B22E06C028E0C1
S1130AE030E005C020E130E002C020E132E0F8014E
S1130AF0B7FE07C060817181828193810C5F1F4FB3
S1130B0006C06081718180E090E00E5F1F4FA301F9
S1130B100E946C06882E8618FB2DFF773F2E36FE2A
S1130B200DC0232D2E7FA22E891458F434FE0BC041
S1130B3032FC09C0832D8E7EA82E05C0B82CA32CB0
S1130B4003C0B82C01C0B92CA4FE0FC0FE01E80DEF
S1130B50F11D8081803321F49A2D997EA92E09C03C
S1130B60A2FE06C0B394B39404C08A2D867809F01B
S1130B70B394A3FC11C0A0FE06C0B21488F4280CE0
S1130B80922C9B180EC0B21460F4B60180E290E07F
S1130B900E943006B394F7CFB21418F42B1802C095
S1130BA0982C212CA4FE10C0B60180E390E00E9492
S1130BB03006A2FE17C0A1FC03C088E790E002C083
S1130BC088E590E0B6010CC08A2D867859F0A1FE24
S1130BD002C08BE201C080E2A7FC8DE2B60190E086
S1130BE00E943006891438F4B60180E390E00E9434
S1130BF030069A94F7CF8A94F301E80DF11D8081B1
S1130C00B60190E00E9430068110F5CF222009F44D
S1130C1042CEB60180E290E00E9430062A94F6CFDC
S1130C20F6018681978102C08FEF9FEF2B96E2E158
S1130C300C94E606FC010590615070400110D8F751
S1130C40809590958E0F9F1F0895FC016150704010
S1130C5001900110D8F7809590958E0F9F1F0895ED
S1130C600F931F93CF93DF93FB01238121FD03C0D7
S1130C708FEF9FEF2CC022FF16C04681578124813D
S1130C8035814217530744F4A081B1819D012F5F40
S1130C903F4F318320838C93268137812F5F3F4FD1
S1130CA03783268314C08B01EC01FB010084F1859A
S1130CB0E02D0995892BE1F6D80116968D919C912A
S1130CC01797019617969C938E931697CE01DF91F2
S1130CD0CF911F910F910895FA01AA27283051F15D
S1130CE0203181F1E8946F936E7F6E5F7F4F8F4F59
S1130CF09F4FAF4FB1E03ED0B4E03CD0670F781FB8
S1130D00891F9A1FA11D680F791F8A1F911DA11D9C
S1130D106A0F711D811D911DA11D20D009F46894D5
S1130D203F912AE0269F11243019305D3193DEF67D
S1130D30CF010895462F4770405D4193B3E00FD033
S1130D40C9F7F6CF462F4F70405D4A3318F0495D1E
S1130D5031FD4052419302D0A9F7EACFB4E0A69501
S1130D609795879577956795BA95C9F70097610523
S1130D70710508959B01AC010A2E06945795479579
S1130D8037952795BA95C9F7620F731F841F951F6E
S1130D90A01D08952F923F924F925F926F927F927F
S1130DA08F929F92AF92BF92CF92DF92EF92FF9277
S1130DB00F931F93CF93DF93CDB7DEB7CA1BDB0B23
S1130DC00FB6F894DEBF0FBECDBF09942A883988C8
S1130DD048885F846E847D848C849B84AA84B984CF
S1130DE0C884DF80EE80FD800C811B81AA81B981DB
S1130DF0CE0FD11D0FB6F894DEBF0FBECDBFED01EF
S1090E000895F894FFCFF1
S1130E06506572696F64206F6620353535207469C4
S1130E166D657220696E206D6963726F7365636FA9
S1130E266E64733A20256C75004C6F772070756C70
S1130E367365206F66203535352074696D657220BB
S1130E46696E206D6963726F7365636F6E64733A5E
S1130E5620256C7500486967682070756C73652079
S1130E666F66203535352074696D657220696E208C
S1130E766D6963726F7365636F6E64733A20256C74
S1130E86750076616C203D20256900436F6E746998
S1130E966E756F75732074696D657220696E7075F1
S1130EA674207265706F7274696E672073746F70E4
S1130EB67065642E004144432056616C75653A2082
S1130EC62575004144432056616C75653A202575A5
S1130ED6206D5600436F6E74696E756F75736C7909
S1130EE6207265706F7274204144433020636F6EC4
S1130EF676657273696F6E20726573756C7420699A
S1130F066E206D560053746F7020636F6E74696E35
S1130F16756F7573207265706F7274696E67206F72
S1130F2666204144433020696E70757400546F67BF
S1130F36676C6520746865204C454420626974209A
S1130F4634206174203132356D730053746F702010
S1130F56746F67676C696E67204C454420626974D8
S1130F662034005265706F72742073746174652046
S1130F766F6620504F525444206F757470757473A5
S1130F86005265706F72742063757272656E742098
S1130F9676616C7565206F66204F4352324220722B
S1130FA66567697374657200496E707574206E6F37
S1110FB674207265636F676E697A65642E003D
S9030000FC
